:020000040800F2
:100000000050002055020008390200083B02000899
:100010003D0200083F020008410200080000000005
:100020000000000000000000000000004302000883
:1000300045020008000000004702000849020008CD
:100040009D0200089D0200089D0200089D02000814
:100050009D0200089D0200089D0200089D02000804
:100060009D0200089D0200089D0200089D020008F4
:100070009D0200089D0200089D0200089D020008E4
:100080009D0200089D0200089D0200089D020008D4
:100090009D0200089D0200089D0200089D020008C4
:1000A0009D0200089D0200089D0200089D020008B4
:1000B0009D0200089D0200089D0200089D020008A4
:1000C0009D0200089D0200089D0200089D02000894
:1000D0009D0200089D0200089D0200089D02000884
:1000E0009D0200089D0200089D020008000000001B
:1000F0000000000000000000000000000000000000
:0C01000000000000000000005FF808F1A3
:10010C0010B5054C237833B9044B13B10448AFF345
:10011C0000800123237010BD3C040020000000006F
:10012C002C0B000808B5034B1BB103490348AFF374
:10013C00008008BD00000000400400202C0B0008CB
:10014C0082B00A4B9A6942F020029A619A6902F0D5
:10015C0020020092009A9A6942F004029A619B690B
:10016C0003F004030193019B02B07047001002409E
:10017C0072B6FEE700B591B00023089309930B9378
:10018C000C9301930293039304930593012206921B
:10019C004FF4803307930A9202220D920E934FF480
:1001AC00E0130F9306A800F031F980B90F230193E7
:1001BC0002210291002303934FF480620492059371
:1001CC0001A800F063FB20B911B05DF804FBFFF748
:1001DC00CFFFFFF7CDFF08B500F082F8FFF7CAFF9D
:1001EC00FFF7AEFFFEE7000082B00E4B9A6942F0BB
:1001FC0001029A619A6902F001020092009ADA698E
:10020C0042F08052DA61DB6903F080530193019B69
:10021C00054A536823F0E06343F00073536002B067
:10022C00704700BF0010024000000140FEE7FEE7EF
:10023C00FEE7FEE7FEE770477047704708B500F031
:10024C0061F808BD70470000002103E00B4B5B58C0
:10025C00435004310A480B4B42189A42F6D30A4ACF
:10026C0002E0002342F8043B084B9A42F9D3FFF713
:10027C00E9FF00F0C1FBFFF7AEFF7047780B0008F9
:10028C00000000203C0400203C04002080040020DE
:10029C00FEE7000010B504460E4B18784FF47A7345
:1002AC00B3FBF0F30C4A1068B0FBF3F000F082F8EB
:1002BC0068B90F2C01D901200AE0002221464FF029
:1002CC00FF3000F043F8054B1C60002000E00120DB
:1002DC0010BD00BF0400002000000020080000201A
:1002EC0008B5074A136843F010031360032000F0AD
:1002FC001BF80020FFF7CEFFFFF776FF002008BDAC
:10030C0000200240034A1168034B1B780B44136016
:10031C00704700BF5804002004000020014B1868EF
:10032C00704700BF58040020074AD36823F4E063E9
:10033C001B041B0C000200F4E060184340F0BF608B
:10034C0040F40030D060704700ED00E030B4174B43
:10035C00DB68C3F30223C3F10704042C28BF042475
:10036C001D1D062D01D9033B00E000234FF0FF3586
:10037C0005FA04F421EA0401994005FA03F322EA90
:10038C0003031943002809DB0901C9B200F16040DD
:10039C0000F5614080F8001330BC704700F00F008E
:1003AC000901C9B2024B1954F6E700BF00ED00E099
:1003BC0014ED00E00138B0F1807F0AD2064B586092
:1003CC00064AF02182F823100020986007221A6058
:1003DC0070470120704700BF10E000E000ED00E026
:1003EC0082B0084B1B68084AA2FB03235B0A00FB84
:1003FC0003F0019000BF019B5A1E0192002BF9D112
:10040C0002B0704700000020D34D6210002800F0AD
:10041C00F18170B582B00446036813F0010F2CD043
:10042C00AA4B5B6803F00C03042B1DD0A74B5B6835
:10043C0003F00C03082B12D06368B3F5803F41D056
:10044C00002B55D103F1804303F504331A6822F4D1
:10045C0080321A601A6822F480221A6037E09B4BB3
:10046C005B6813F4803FE7D0984B1B6813F4003F94
:10047C0003D06368002B00F0BF81236813F0020FD8
:10048C0075D0924B5B6813F00C0F5FD08F4B5B6891
:10049C0003F00C03082B54D02369002B00F0898047
:1004AC008B4B01221A60FFF739FF0546874B1B68FF
:1004BC0013F0020F74D1FFF731FF401B0228F5D95E
:1004CC0003209EE1814A136843F480331360636810
:1004DC0043B3FFF723FF05467C4B1B6813F4003F27
:1004EC00CBD1FFF71BFF401B6428F5D9032088E113
:1004FC00B3F5A02F09D0754B1A6822F480321A601C
:10050C001A6822F480221A60E1E703F18043A3F514
:10051C003C331A6842F480221A601A6842F4803222
:10052C001A60D4E7FFF7FAFE0546684B1B6813F414
:10053C00003FA2D0FFF7F2FE401B6428F5D9032040
:10054C005FE1624B5B6813F4803FA5D15F4B1B6886
:10055C0013F0020F03D02369012B40F04F815B4A4B
:10056C00136823F0F803616943EAC103136023683D
:10057C0013F0080F32D0A369002B5BD0554B01222E
:10058C001A60FFF7CBFE0546504B5B6A13F0020F67
:10059C0021D1FFF7C3FE401B0228F5D9032030E11F
:1005AC004A4A136823F0F803616943EAC1031360F4
:1005BC00DDE7474B00221A60FFF7B0FE0546434BC0
:1005CC001B6813F0020FD2D0FFF7A8FE401B0228C5
:1005DC00F5D9032015E10120FFF702FF236813F082
:1005EC00040F00F09780394BDB6913F0805F33D137
:1005FC00364BDA6942F08052DA61DB6903F08053E2
:10060C000193019B0125344B1B6813F4807F25D08B
:10061C00E368012B36D0002B4CD103F1804303F55A
:10062C0004331A6A22F001021A621A6A22F00402D6
:10063C001A622CE0274B00221A60FFF76FFE05466A
:10064C00224B5B6A13F0020FC8D0FFF767FE401B0A
:10065C000228F5D90320D4E00025D4E71E4A1368FC
:10066C0043F480731360FFF759FE06461A4B1B6860
:10067C0013F4807FCCD1FFF751FE801B6428F5D991
:10068C000320BEE0114A136A43F001031362E368CE
:10069C0073B3FFF743FE06460C4B1B6A13F0020FB5
:1006AC0037D1FFF73BFE801B41F288339842F3D9D8
:1006BC000320A6E0052B11D0044B1A6A22F001028C
:1006CC001A621A6A22F004021A62E0E70010024071
:1006DC000000424280044242007000404D4B1A6AB6
:1006EC0042F004021A621A6A42F001021A62CEE760
:1006FC00FFF714FE0646474B1B6A13F0020F08D097
:10070C00FFF70CFE801B41F288339842F3D903208B
:10071C0077E0E5B9E369002B72D03E4A526802F0EB
:10072C000C02082A56D0022B17D03B4B00221A6021
:10073C00FFF7F4FD0446374B1B6813F0007F47D0DE
:10074C00FFF7ECFD001B0228F5D9032059E0314AD4
:10075C00D36923F08053D361DCE72F4B00221A605E
:10076C00FFF7DCFD05462B4B1B6813F0007F06D012
:10077C00FFF7D4FD401B0228F5D9032041E0236A82
:10078C00B3F5803F1AD023494B6823F47413226AC3
:10079C00606A024313434B601F4B01221A60FFF740
:1007AC00BDFD04461B4B1B6813F0007F0ED1FFF7F9
:1007BC00B5FD001B0228F5D9032022E0154A536829
:1007CC0023F40033A1680B435360DCE7002018E0EE
:1007DC00002016E0012B16D00E4B5B6803F4803121
:1007EC00226A914211D103F47013626A93420ED1C2
:1007FC00002006E001207047012002E0012000E00B
:10080C00002002B070BD0120FBE70120F9E70120B8
:10081C00F7E700BF001002406000424210B487B0FE
:10082C00164C94E80F000DF1180C0CE90F00238AFC
:10083C00ADF80430124B5B6803F00C02082A03D0AD
:10084C00104807B010BC7047C3F38342624412F8DF
:10085C00102C13F4803F0CD0094B5B68C3F340435E
:10086C00634413F8143C074800FB02F0B0FBF3F0B0
:10087C00E7E7054800FB02F0E3E700BF440B000884
:10088C000010024000127A0000093D00002800F020
:10089C00A08070B50446534B1B6803F007038B42D2
:1008AC000BD2504A136823F007030B4313601368F1
:1008BC0003F007038B4240F08E80236813F0020F85
:1008CC0017D013F0040F04D0474A536843F4E06385
:1008DC005360236813F0080F04D0434A536843F461
:1008EC0060535360404A536823F0F003A0680343FD
:1008FC0053600D46236813F0010F31D06368012B50
:10090C0020D0022B25D0384A126812F0020F64D086
:10091C0035494A6822F0030213434B60FFF7FEFC93
:10092C000646314B5B6803F00C036268B3EB820F35
:10093C0016D0FFF7F3FC801B41F288339842F0D9B4
:10094C00032045E0284A126812F4003FE0D1012050
:10095C003EE0254A126812F0007FD9D1012037E021
:10096C00204B1B6803F00703AB420AD91D4A1368DE
:10097C0023F007032B431360136803F00703AB4208
:10098C002DD1236813F0040F06D0174A536823F4B3
:10099C00E063E1680B435360236813F0080F07D042
:1009AC00114A536823F46053216943EAC10353602D
:1009BC00FFF734FF0C4B5B68C3F303130B4AD35C98
:1009CC00D8400B4B18600B4B1868FFF763FC0020EA
:1009DC0070BD012070470120FAE70120F8E70120E3
:1009EC00F6E700BF0020024000100240580B000840
:1009FC00000000200800002070B50D4E0D4D761B38
:100A0C00B61006D00024013455F8043B9847A64292
:100A1C00F9D1094E094D00F083F8761BB61006D0BB
:100A2C000024013455F8043B9847A642F9D170BD17
:100A3C006C0B00086C0B0008740B00086C0B0008A6
:100A4C00024B13B1024800F005B8704700000000DB
:100A5C006D0A0008002301461A46184600F01EB81D
:100A6C0038B50A4C0A4D641BA4100AD004F180431B
:100A7C00013B05EB8305013C55F804399847002CE4
:100A8C00F9D1BDE8384000F051B800BF780B000830
:100A9C00740B0008704700BF704700BF2DE9F04190
:100AAC001D4C0546206890461F460E46FFF7F2FF88
:100ABC001A4B1A68D2F848311BB35A6820681F2A9F
:100ACC0024DC4DB9511C0232596043F82260FFF707
:100ADC00E3FF0020BDE8F081012403EB820CCCF88D
:100AEC008880D3F8881194402143022DC3F88811D3
:100AFC00CCF80871E6D1D3F88C110C43C3F88C41B7
:100B0C00E0E702F5A673C2F84831D6E7FFF7C4FF59
:100B1C004FF0FF30DEE700BF38040020680B000800
:100B2C00F8B500BFF8BC08BC9E467047F8B500BFCE
:080B3C00F8BC08BC9E4670479E
:100B440002030405060708090A0B0C0D0E0F10100A
:100B54000102000000000000000000000102030484
:080B640006070809100000203B
:080B6C004D0A000831010008E8
:040B74000D01000867
:100B78000024F40001000000100000000000000044
:100B880000000000FC02002064030020CC030020C9
:100B9800000000000000000000000000000000004D
:100BA800000000000000000000000000000000003D
:100BB800000000000000000000000000000000002D
:100BC800000000000000000000000000000000001D
:100BD800000000000000000000000000000000000D
:100BE80000000000000000000000000000000000FD
:100BF80000000000000000000000000000000000ED
:100C080000000000000000000000000000000000DC
:100C180000000000000000000000000000000000CC
:100C280000000000000000000100000000000000BB
:100C38000E33CDAB34126DE6ECDE05000B00000080
:100C4800000000000000000000000000000000009C
:100C5800000000000000000000000000000000008C
:100C6800000000000000000000000000000000007C
:100C7800000000000000000000000000000000006C
:0C0FA80000000000000000005C040020BD
:040000050800025598
:00000001FF
